:1000000045C0000061C000005FC000005DC000008E
:100010005BC0000059C0000057C0000055C0000080
:1000200053C0000051C000004FC000004DC0000090
:100030004BC000006EC0000047C0000045C000007B
:1000400043C0000041C000003FC000003DC00000B0
:100050003BC0000039C0000037C0000035C00000C0
:1000600033C0000031C000002FC000002DC00000D0
:100070002BC0000029C0000027C0000025C00000E0
:1000800023C0000021C000001FC0000011241FBEBB
:10009000CFEFD0E4DEBFCDBF11E0A0E0B1E0EAEAEF
:1000A000F3E100E00BBF02C007900D92A83AB10740
:1000B000D9F722E0A8EAB1E001C01D92A639B20743
:1000C000E1F789D40C94D3099BCF8BE08093810016
:1000D0008DE790E0909389008093880082E0809380
:1000E0006F0010928500109284008091040190911D
:1000F0000501A0910601B09107018093A80190939A
:10010000A901A093AA01B093AB018FB780688FBFFC
:1001100008951F920F920FB60F9211248F939F9301
:10012000AF93BF938091A8019091A901A091AA01DA
:10013000B091AB010197A109B1098093A8019093F7
:10014000A901A093AA01B093AB01892B8A2B8B2B19
:1001500099F481E08093AC018091040190910501B4
:10016000A0910601B09107018093A8019093A90185
:10017000A093AA01B093AB01BF91AF919F918F91D2
:100180000F900FBE0F901F9018956093040170930D
:10019000050180930601909307016093A801709375
:1001A000A9018093AA019093AB01089588B95E9844
:1001B0005D985F9A86E08A95F1F700C05F988FE0BE
:1001C00097E20197F1F700C00000089588B95E9AA0
:1001D0005D985F9A86E08A95F1F700C05F988FE09E
:1001E00097E20197F1F700C0000008958FEF8AB9F8
:1001F00087B92FE788E391E0215080409040E1F7F4
:1002000000C0000088E3D2DF8CE0D0DF86E0CEDFE4
:1002100081E0CCDF8FE097E20197F1F700C00000AA
:100220000895CF93DF93EC018881882329F02196EC
:10023000CDDF89918111FCCFDF91CF910895CF93CC
:10024000DF93EA01811106C06431D8F4862F8068FB
:10025000ADDF17C0813031F4643198F4862F806CA3
:10026000A5DF0FC0823031F4643158F484E9860F81
:100270009DDF07C0833029F4643118F484ED860FC4
:1002800095DFCE01CEDFDF91CF91089581E08EDF43
:100290008091AF0180588ACF089581E087DF8091F7
:1002A000AF018C5283CF08958091B501811102C0B6
:1002B000EDCF0895F2CF08950F931F93CF93DF935F
:1002C000883070F48B01880F880F880F805C6EDF98
:1002D000E801085F1F4F899179DFC017D107D9F76F
:1002E000DF91CF911F910F910895CF93C42F81116A
:1002F00006C06431D8F4862F806858DF17C081307B
:1003000031F4643198F4862F806C50DF0FC0823056
:1003100031F4643158F484E9860F48DF07C0833034
:1003200029F4643118F484ED860F40DF8C2F4EDF02
:10033000CF910895CF93DF93CDB7DEB7E0970FB697
:10034000F894DEBF0FBECDBFFE01319688E0DF011D
:100350001D928A95E9F788E0EAE0F1E0DE0119965E
:1003600001900D928A95E1F788E0E2E1F1E0DE018B
:10037000519601900D928A95E1F788E0EAE0F1E06C
:10038000DE01599601900D928A95E1F788E0EAE145
:10039000F1E0DE01919601900D928A95E1F788E0F7
:1003A000E2E2F1E0DE01999601900D928A95E1F783
:1003B0008091AD01811106C0BE01675F7F4F81E072
:1003C0007BDF0EC0813029F4BE016F5E7F4F74DF8A
:1003D00007C0823029F4BE01675E7F4F81E06CDF89
:1003E000BE016F5F7F4F80E067DFBE016F5D7F4FB3
:1003F00084E062DFBE01675D7F4F85E05DDFE096F0
:100400000FB6F894DEBF0FBECDBFDF91CF91089538
:10041000E0919502F0E0CF01880F991FE80FF91FD6
:10042000EF51FE4F83E1808311824AE651E063E1A0
:1004300080E005CF0895E091CC01F0E0CF01880F76
:10044000991FE80FF91FE55CFD4F83E1808383E08E
:1004500081834CE651E063E1F2CE089548D462E333
:1004600070E0D7D380FD17C08091B10181110AC01F
:10047000CFDF809195028F5F8093950281E080931A
:10048000B1010895D8DF8091CC018F5F8093CC01BA
:100490001092B10108958091B101813049F4CBDF10
:1004A0008091CC018F5F8093CC011092B1010895AF
:1004B000AFDF809195028F5F8093950281E08093FA
:1004C000B101089580910901843218F0855080931C
:1004D00009010895FF920F931F93CF93DF9307D4E1
:1004E00029DF80919502882399F1F12C0F2D10E0DE
:1004F000E801CC0FDD1FC00FD11FCF51DE4F688147
:10050000615068834AE651E0898199DE68816331F0
:1005100020F46F5F40E08981E8DEF801EE0FFF1FF5
:10052000E00FF11FEF51FE4F808181110CC0F801E7
:10053000EE0FFF1F0E0F1F1FF801EF51FE4F40E09F
:1005400060E08181D2DEF39480919502F81670F21A
:10055000DF91CF911F910F91FF900895FF920F931C
:100560001F93CF93DF93C3D3E5DE8091CC01882323
:1005700099F1F12C0F2D10E0E801CC0FDD1FC00F19
:10058000D11FC55CDD4F6881615068834CE651E046
:10059000898155DE6881633120F46F5F40E0898195
:1005A000A4DEF801EE0FFF1FE00FF11FE55CFD4F29
:1005B000808181110CC0F801EE0FFF1F0E0F1F1F6D
:1005C000F801E55CFD4F40E060E081818EDEF39450
:1005D0008091CC01F81670F2DF91CF911F910F91AD
:1005E000FF900895AF92BF92CF92DF92EF92FF9269
:1005F0000F931F93CF93DF938091B401813009F063
:1006000048C08093B5016AE070E080E090E0BDDD15
:100610008091B30181112BC03AC08601F501C083DE
:1006200041E0F70160818C2F60DECF5FC430A9F715
:100630008091AC018823E1F31092AC01C0E0000F7F
:10064000111F08541E4F7801FFEFEF1AFF0AF70140
:10065000C08340E0F80160818C2F47DECF5FC4305B
:10066000B1F7DF5F8091B301D81710F010C0D0E070
:10067000C0E0CD2ED12CC601880F991F9C012854B3
:100680003E4F790159013FEFA31AB30AC6CF22DFCB
:1006900065DFDF91CF911F910F91FF90EF90DF9079
:1006A000CF90BF90AF900895AF92BF92CF92DF925C
:1006B000EF92FF920F931F93CF93DF938091B4013A
:1006C000813009F048C01092B5016AE070E080E026
:1006D00090E05BDD8091B30181112BC03AC08601AF
:1006E000C150F501C08341E0F70160818C2FFDDD31
:1006F000C111F5CF8091AC018823E1F31092AC01D8
:10070000C4E0000F111F08541E4F7801FFEFEF1ACD
:10071000FF0AC150F701C08340E0F80160818C2FCF
:10072000E4DDC111F6CFDF5F8091B301D81710F07F
:1007300010C0D0E0C4E0CD2ED12CC601880F991F87
:100740009C0128543E4F790159013FEFA31AB30A87
:10075000C6CFC0DE03DFDF91CF911F910F91FF90D5
:10076000EF90DF90CF90BF90AF90089511B887E8D9
:1007700080937A0080E480937C0008958770806481
:1007800080937C00EAE7F0E0808180648083808150
:1007900084FFFDCFEAE7F0E08081806180832091D3
:1007A00078008091790090E0982F8827820F911D22
:1007B0000895E091B301F0E0EE0FFF1FE854FE4F03
:1007C0008091AF018083118208958091080181306A
:1007D00061F4E091B301F0E0EE0FFF1FE854FE4F2B
:1007E0008091AF01808311820895E091B301F0E020
:1007F000EE0FFF1FE854FE4F8091AF01808383E02E
:10080000818308951092B7011092B6011092B5013C
:100810001092B4011092B3018BE4809309011092FD
:10082000B2011092B10181E0809308011092B001F1
:100830001092AF011092AE011092CC01109295026D
:100840008AE5E1EEF1E0DF01982F1D929A95E9F734
:10085000EBE3F2E0DF011D928A95E9F71092AD011A
:100860008FEF81B982B984B915B887B918B88AB938
:100870001BB8BCDC19DD68EE73E080E090E085DC3D
:1008800024CC08950F931F93CF93DF938091CC01D5
:10089000882309F44BC010E001E08091AE0190E0A4
:1008A000C12FD0E0DC01AA0FBB1FA854BE4FFE0130
:1008B000EE0FFF1FEC0FFD1FE55CFD4F11963C9105
:1008C0001197218132132CC0FD01DE01AA0FBB1F3D
:1008D000AC0FBD1FA55CBD4F90818C91981320C0BB
:1008E0008091B6019091B70101979093B7018093E1
:1008F000B6018091AF0181508093AF0166DF809196
:10090000B3018F5F8093B301CE01880F991FC80F89
:10091000D91FC55CDD4F088340E0602F8981E5DC8D
:100920001F5F8091CC01181708F4B7CF8091950212
:10093000882309F44BC010E001E08091AE0190E003
:10094000C12FD0E0DC01AA0FBB1FA854BE4FFE018F
:10095000EE0FFF1FEC0FFD1FEF51FE4F11963C9164
:100960001197218132132CC0FD01DE01AA0FBB1F9C
:10097000AC0FBD1FAF51BE4F90818C91981320C01A
:100980008091B6019091B70101979093B701809340
:10099000B6018091AF0181508093AF0116DF809145
:1009A000B3018F5F8093B301CE01880F991FC80FE9
:1009B000D91FCF51DE4F088340E0602F898195DC3D
:1009C0001F5F80919502181708F4B7CFDF91CF9180
:1009D0001F910F91089516DF1092AF018EE691E0FE
:1009E00020DC89E08093AF018091AC018823E1F3A2
:1009F0001092AC0159DC9EDCDCDEE8EBF1E041E07A
:100A00006081818172DC8091B3018F5F8093B3013B
:100A10006091090170E080E090E0B7DBC0E0DDECC0
:100A20006091090170E080E090E0AFDB9FDE109202
:100A3000AE018091B3018823E9F09DD07BDCE09189
:100A4000AE01F0E0EE0FFF1FE854FE4F41E0608181
:100A500081814BDC17DF8091AC018823E1F3109298
:100A6000AC018091AE018F5F8093AE019091B30194
:100A7000891718F36091090170E080E090E085DB50
:100A80007AD06CDD78D026DD76D08091AC018823D9
:100A9000E1F31092AC01CF5F6ED08091B6019091DE
:100AA000B70101969093B7018093B601CD9F812D38
:100AB000112486958695982F990F990F890FC81341
:100AC00001C0CCDCC0FF0AC08091B6019091B70193
:100AD00001969093B7018093B601F4DC4CD0A0CF7F
:100AE000CF93DF931092AF0181E060DBDDDB41E863
:100AF00051E060E080E0A3DB8091B7018F938091AB
:100B0000B6018F938BE891E09F938F93CDECD1E06A
:100B1000DF93CF93FAD0AE0160E082E090DB60918A
:100B2000B60180E090E0D4D380E090E0C9D31F927A
:100B30008F9388E991E09F938F93DF93CF93E5D0D4
:100B4000AE0160E083E07BDB60E07AEC8AE99BE366
:100B50001CDB8DB79EB70C960FB6F8949EBF0FBEE8
:100B60008DBF02C0039B37DF8091AC018111FACFAA
:100B7000DF91CF910895CF93DF9381E0FFDDEC010A
:100B8000039903C0ADDF1092B00180B190E0809571
:100B9000909584769927892B19F082E08093B00193
:100BA000C937D1051CF083E08093B001CA35D10567
:100BB00044F484E08093B0018091AF0181111CC0A6
:100BC00004C08091AF01811101C08ADF8091B00122
:100BD000833071F480910801813039F48093B4013D
:100BE00001DD1092B401109208011092B0010EC004
:100BF0008091B001843051F4C1E0C093B40154DD60
:100C00001092B401C09308011092B001DF91CF910E
:100C1000089597FB072E16F4009406D077FD08D0B0
:100C20000BD007FC05D03EF4909581959F4F089519
:100C3000709561957F4F0895AA1BBB1B51E107C0BA
:100C4000AA1FBB1FA617B70710F0A61BB70B881F5C
:100C5000991F5A95A9F780959095BC01CD010895EB
:100C60008F929F92AF92BF92CF92DF92EF92FF92BC
:100C7000CF93DF93EC01688179818A819B81611533
:100C800071058105910521F464E279ED8BE597E02A
:100C90002DE133EF41E050E029D349015A019B0196
:100CA000AC01A7EAB1E43ED36B017C01ACEEB4EF3A
:100CB000A501940143D3DC01CB018C0D9D1DAE1D1C
:100CC000BF1DB7FF03C00197A109B048888399836E
:100CD000AA83BB839F77DF91CF91FF90EF90DF9046
:100CE000CF90BF90AF909F908F900895B9CF80E044
:100CF00091E0B6CFA0E0B0E08093000190930101B5
:100D0000A0930201B093030108950F931F93CF9313
:100D1000DF93CDB7DEB72E970FB6F894DEBF0FBEC8
:100D2000CDBF0D891E8986E08C831A8309838FEFDE
:100D30009FE79E838D83AE01475E5F4F6F89788DFD
:100D4000CE01019610D0EF81F885E00FF11F1082DF
:100D50002E960FB6F894DEBF0FBECDBFDF91CF91B8
:100D60001F910F9108952F923F924F925F926F9231
:100D70007F928F929F92AF92BF92CF92DF92EF922B
:100D8000FF920F931F93CF93DF93CDB7DEB72B97CF
:100D90000FB6F894DEBF0FBECDBF6C017B018A0198
:100DA000FC0117821682838181FFBFC1CE010196AB
:100DB0003C01F6019381F70193FD859193FF8191A9
:100DC0007F01882309F4ADC1853239F493FD859103
:100DD00093FF81917F01853221F4B60190E0D6D155
:100DE000E8CF912C212C312CFFE1F315D8F08B3278
:100DF00079F038F4803279F08332A1F4232D206128
:100E00001DC08D3261F0803369F4232D216016C03E
:100E1000832D8260382EE32DE4603E2E2AC0F32D10
:100E2000F8601DC037FC2DC020ED280F2A3040F09F
:100E30008E32B9F436FC75C1232D2064322E19C0D0
:100E400036FE06C08AE0989E200D1124922E11C015
:100E5000EAE02E9E200D1124222EF32DF0623F2E6B
:100E600008C08C3621F4832D8068382E02C0883665
:100E700041F4F70193FD859193FF81917F018111E9
:100E8000B3CF982F9F7D9554933028F40C5F1F4F5C
:100E90009FE399830DC0833631F0833771F083353A
:100EA00009F055C020C0F801808189830E5F1F4F73
:100EB00088248394912C530112C02801F2E04F0E34
:100EC000511CF801A080B18036FE03C0692D70E08E
:100ED00002C06FEF7FEFC5014ED14C018201F32DAF
:100EE000FF773F2E15C0280122E0420E511CF80169
:100EF000A080B18036FE03C0692D70E002C06FEFA4
:100F00007FEFC5012DD14C01F32DF0683F2E8201FA
:100F100033FC19C0822D90E088169906A0F4B60122
:100F200080E290E033D12A94F5CFF50137FC85912A
:100F300037FE81915F01B60190E028D121102A94FB
:100F400021E0821A91088114910479F7E1C0843676
:100F500011F0893639F5F80137FE07C060817181DB
:100F6000828193810C5F1F4F08C060817181072EC1
:100F7000000C880B990B0E5F1F4FF32DFF763F2E51
:100F800097FF09C090958095709561957F4F8F4F21
:100F90009F4FF0683F2E2AE030E0A30133D1882E26
:100FA000861844C0853731F4232D2F7EB22E2AE0D7
:100FB00030E025C0932D997FB92E8F36C1F018F4FB
:100FC000883579F0AEC0803719F0883721F0A9C094
:100FD000E92FE061BE2EB4FE0DC0FB2DF460BF2EE4
:100FE00009C034FE0AC0292F2660B22E06C028E0B0
:100FF00030E005C020E130E002C020E132E0F8013D
:10100000B7FE07C060817181828193810C5F1F4FA1
:1010100006C06081718180E090E00E5F1F4FA301E8
:10102000F1D0882E8618FB2DFF773F2E36FE0DC09F
:10103000232D2E7FA22E891458F434FE0BC032FCCF
:1010400009C0832D8E7EA82E05C0B82CA32C03C00A
:10105000B82C01C0B92CA4FE0FC0FE01E80DF11D93
:101060008081803321F49A2D997EA92E09C0A2FE99
:1010700006C0B394B39404C08A2D867809F0B39463
:10108000A3FC10C0A0FE06C0B21480F4280C922C61
:101090009B180DC0B21458F4B60180E290E076D0EF
:1010A000B394F8CFB21418F42B1802C0982C212C4A
:1010B000A4FE0FC0B60180E390E068D0A2FE16C087
:1010C000A1FC03C088E790E002C088E590E0B6018B
:1010D0000CC08A2D867851F0A1FE02C08BE201C0BF
:1010E00080E2A7FC8DE2B60190E050D0891430F484
:1010F000B60180E390E04AD09A94F8CF8A94F30145
:10110000E80DF11D8081B60190E040D08110F6CF4E
:10111000222009F44ECEB60180E290E037D02A9426
:10112000F7CFF6018681978102C08FEF9FEF2B9654
:101130000FB6F894DEBF0FBECDBFDF91CF911F91E8
:101140000F91FF90EF90DF90CF90BF90AF909F9066
:101150008F907F906F905F904F903F902F90089569
:10116000FC010590615070400110D8F78095909572
:101170008E0F9F1F0895FC01615070400190011077
:10118000D8F7809590958E0F9F1F08950F931F930A
:10119000CF93DF93FB01238121FD03C08FEF9FEFEE
:1011A0002CC022FF16C04681578124813581421709
:1011B000530744F4A081B1819D012F5F3F4F3183DC
:1011C00020838C93268137812F5F3F4F378326837F
:1011D00014C08B01EC01FB010084F185E02D099521
:1011E000892BE1F6D80116968D919C91179701965F
:1011F00017969C938E931697CE01DF91CF911F91F6
:101200000F910895FA01AA27283051F1203181F178
:10121000E8946F936E7F6E5F7F4F8F4F9F4FAF4FFE
:10122000B1E03ED0B4E03CD0670F781F891F9A1F11
:10123000A11D680F791F8A1F911DA11D6A0F711DC5
:10124000811D911DA11D20D009F468943F912AE0D1
:10125000269F11243019305D3193DEF6CF010895B9
:10126000462F4770405D4193B3E00FD0C9F7F6CFEA
:10127000462F4F70405D4A3318F0495D31FD4052B2
:10128000419302D0A9F7EACFB4E0A6959795879548
:1012900077956795BA95C9F7009761057105089527
:1012A0009B01AC010A2E06945795479537952795D3
:1012B000BA95C9F7620F731F841F951FA01D08956B
:1012C000F999FECF92BD81BDF89A992780B508950E
:1012D000262FF999FECF1FBA92BD81BD20BD0FB652
:1012E000F894FA9AF99A0FBE01960895052E97FB85
:1012F00016F400940FD057FD05D024D007FC02D07F
:1013000046F408C050954095309521953F4F4F4F7A
:101310005F4F089590958095709561957F4F8F4FA1
:101320009F4F089531D0A59F900DB49F900DA49F1D
:10133000800D911D11240895B7FFF4CFF3DF821BB8
:10134000930B0895A1E21A2EAA1BBB1BFD010DC031
:10135000AA1FBB1FEE1FFF1FA217B307E407F50765
:1013600020F0A21BB30BE40BF50B661F771F881F41
:10137000991F1A9469F760957095809590959B01D7
:10138000AC01BD01CF010895A29FB001B39FC00180
:10139000A39F700D811D1124911DB29F700D811DA1
:0A13A0001124911D0895F894FFCF69
:1013AA000100000001000000014B00001F1F1F0088
:1013BA000000001F1F1F000000000000001F1F1F69
:1013CA000000000000001F1F1F00081B1F1F1F0036
:1013DA00000004050D1F1F1F000000080E1E1F1F1E
:1013EA00170000081217161F1F1F1F170D080900E4
:1013FA000000011F0F0D0D04000000001B1F0E0C42
:10140A0008000000040C1E1E1F0E7400620074699E
:10141A007320612067616D652069207468696E6B4D
:10142A0000596F75206C6F7365210053636F726585
:10143A003A20256420202000486967682053636F9A
:08144A0072653A2025640000E0
:00000001FF
