:1000000045C0000060C000005EC000005CC0000091
:100010005AC0000058C0000056C0000054C0000084
:1000200052C0000050C000004EC000004CC0000094
:100030004AC000008BC0000046C0000044C0000061
:1000400042C0000040C000003EC000003CC00000B4
:100050003AC0000038C0000036C0000034C00000C4
:1000600032C0000030C000002EC000002CC00000D4
:100070002AC0000028C0000026C0000024C00000E4
:1000800022C0000020C000001EC0000011241FBEBE
:10009000CFEFD0E4DEBFCDBF11E0A0E0B1E0EAE4F5
:1000A000F6E000E00BBF02C007900D92A630B1074A
:1000B000D9F721E0A6E0B1E001C01D92A531B20759
:1000C000E1F7D3D0C0C29CCFCF93DF93CDB7DEB7DB
:1000D00081E890E02BE0FC01208388E890E02DE7A8
:1000E00030E0FC01318320838FE690E022E0FC01C8
:1000F000208384E890E0FC0111821082809100014D
:1001000090910101A0910201B09103018093070138
:1001100090930801A0930901B0930A018FE590E044
:100120002FE530E0F90120812068FC0120830000E8
:10013000DF91CF910895CF93DF93CDB7DEB781E004
:10014000809306010000DF91CF9108951F920F92D6
:1001500000905F000F92112400905B000F922F938C
:100160003F934F935F936F937F938F939F93AF933F
:10017000BF93EF93FF93CF93DF93CDB7DEB780911B
:10018000070190910801A0910901B0910A0101971E
:10019000A109B1098093070190930801A093090177
:1001A000B0930A018091070190910801A091090183
:1001B000B0910A01892B8A2B8B2B89F4BCDF8091AB
:1001C000000190910101A0910201B091030180937F
:1001D000070190930801A0930901B0930A01000060
:1001E000DF91CF91FF91EF91BF91AF919F918F914F
:1001F0007F916F915F914F913F912F910F9000925E
:100200005B000F9000925F000F901F901895CF93A6
:10021000DF9300D000D0CDB7DEB769837A838B83BC
:100220009C8389819A81AB81BC81809300019093EA
:100230000101A0930201B09303018091000190910C
:100240000101A0910201B0910301809307019093F5
:100250000801A0930901B0930A0100000F900F90CC
:100260000F900F90DF91CF9108952F923F924F9270
:100270005F926F927F928F929F92AF92BF92CF9236
:10028000DF92EF92FF920F931F93CF93DF93CDB73F
:10029000DEB728970FB6F894DEBF0FBECDBF81E260
:1002A00090E0FC01108282E290E02FEFFC012083BD
:1002B00087E290E02FEFFC01208388E290E0FC01D0
:1002C00010828AE290E02FEFFC0120838BE290E025
:1002D000FC01108262E070E080E090E098DFF4DEE4
:1002E00020900D0130900E0140900F0150901001B0
:1002F0006090110170901201809013019090140190
:100300000F2EF4EFAF2EF02DBB24B394C12CD12CC3
:10031000E12CF12C00E010E0222D332D442D552D41
:10032000662D772D882D992D18D1222E332E442E0F
:10033000552E662E772E882E992EA22CB32CC42CE7
:10034000D52CE62CF72C082D192D2A2D3B2D4C2DC4
:100350005D2D6E2D7F2D802F912FA0E068D199F417
:1003600080910401882F90E088709927892B31F0C3
:100370008091040188508093040105C0809104019C
:10038000885F809304018091040180930C01209088
:100390000D0130900E0140900F01509010016090BF
:1003A00011017090120180901301909014010F2E92
:1003B000F6E9AF2EF02DB12CC12CD12CE12CF12C73
:1003C00000E010E0222D332D442D552D662D772D84
:1003D000882D992DC2D0222E332E442E552E662ED6
:1003E000772E882E992EA22CB32CC42CD52CE62C3B
:1003F000F72C082D192D2A2D3B2D4C2D5D2D6E2D02
:100400007F2D802F912FA0E012D1E9F4809104017B
:10041000882F90E084709927892B39F0809104010E
:1004200088708F5F809304010EC080910401882F33
:1004300090E0880F991F982F80910C018870892B6C
:100440008F708093040180E290E0FC018081882F0E
:1004500090E081709927892B09F03EC020910D0111
:1004600030910E0140910F015091100160911101E6
:10047000709112018091130190911401F22FF1708B
:10048000F983E32FE070EA83F42FF070FB83E52F0C
:10049000E070EC83F62FF070FD83E72FE070EE83C1
:1004A000F82FF070FF83E92FE070E88729813A8107
:1004B0004B815C816D817E818F819885A0E0B7D072
:1004C00031F48091040180688093040105C080911B
:1004D00004018F708093040188E290E02091040170
:1004E0002F78FC0120830000809106018823E1F32E
:1004F00010920601A0900D01B0900E01C0900F0166
:10050000D0901001E0901101F090120100911301C0
:10051000109114012A2D3B2D4C2D5D2D6E2D7F2D1C
:10052000802F912FA1E077D0A22EB32EC42ED52EEE
:10053000E62EF72E082F192FA0920D01B0920E0172
:10054000C0920F01D0921001E0921101F0921201BD
:100550000093130110931401C3CE689401C0E89472
:100560008F929F92CF93DF9305D0DF91CF919F9091
:100570008F90089588249924F401E401B0E49F93B6
:10058000AA279A158B049C04ED05FE05CF05D0071C
:10059000A10798F4AD2FDC2FCF2FFE2FE92D982C3B
:1005A000892E982F872F762F652F542F432F322F88
:1005B0002227B85031F7BF9127C01B2EBF91BB2710
:1005C000220F331F441F551F661F771F881F991F57
:1005D000881C991CEE1FFF1FCC1FDD1FAA1FBB1F0D
:1005E0008A149B04EC05FD05CE05DF05A007B107C5
:1005F00048F08A189B08EC09FD09CE09DF09A00B19
:10060000B10B21601A94E1F62EF49401AF01BE0102
:10061000CD01000C08950024A7FD00942A0F301D81
:10062000401D501D601D701D801D901D08950024EB
:10063000A7FD00942A173005400550056005700598
:0A064000800590050895F894FFCF9F
:06064A00010000000900A0
:00000001FF
