S01B000072717561633030345F6C6162335F70617274312E7372656351
S113000045C000004BC0000049C0000047C00000CC
S113001045C0000043C0000041C000003FC00000D4
S11300203DC000003BC0000039C0000037C00000E4
S113003035C0000033C0000031C000002FC00000F4
S11300402DC000002BC0000029C0000027C0000004
S113005025C0000023C0000021C000001FC0000014
S11300601DC000001BC0000019C0000017C0000024
S113007015C0000013C0000011C000000FC0000034
S11300800DC000000BC0000009C0000011241FBEF9
S1130090CFEFD0E4DEBFCDBF20D06EC0B1CFCF93C1
S11300A0DF9300D0CDB7DEB789836A838981882F37
S11300B090E02A81222F30E002C0959587952A95F9
S11300C0E2F78170992721E0892B09F420E0822F3F
S11300D00F900F90DF91CF910895CF93DF9300D0CD
S11300E000D0CDB7DEB781E290E0FC01108282E25D
S11300F090E02FEFFC01208384E290E0FC01108269
S113010085E290E02FEFFC01208387E290E02FEF5F
S1130110FC01208388E290E0FC0110821B8219829A
S11301201A8281E08C8319821A821DC080E290E0D9
S1130130FC018081482F8C81882F90E02A81222F16
S113014030E002C0880F991F2A95E2F784238B833D
S11301506A818B81A4DF882319F089818F5F898369
S11301608A818F5F8A838A81873000F388E290E0F6
S10F01702981FC012083D4CFF894FFCF38
S9030000FC
