:1000000045C0000060C000005EC000005CC0000091
:100010005AC0000058C0000056C0000054C0000084
:1000200052C0000050C000004EC000004CC0000094
:100030004AC000008BC0000046C0000044C0000061
:1000400042C0000040C000003EC000003CC00000B4
:100050003AC0000038C0000036C0000034C00000C4
:1000600032C0000030C000002EC000002CC00000D4
:100070002AC0000028C0000026C0000024C00000E4
:1000800022C0000020C000001EC0000011241FBEBE
:10009000CFEFD0E4DEBFCDBF11E0A0E0B1E0EAECED
:1000A000F3E000E00BBF02C007900D92A430B1074F
:1000B000D9F721E0A4E0B1E001C01D92AA30B20757
:1000C000E1F7D3D080C19CCFCF93DF93CDB7DEB71C
:1000D00081E890E02BE0FC01208388E890E02DE7A8
:1000E00030E0FC01318320838FE690E022E0FC01C8
:1000F000208384E890E0FC0111821082809100014D
:1001000090910101A0910201B0910301809305013A
:1001100090930601A0930701B09308018FE590E04A
:100120002FE530E0F90120812068FC0120830000E8
:10013000DF91CF910895CF93DF93CDB7DEB781E004
:10014000809304010000DF91CF9108951F920F92D8
:1001500000905F000F92112400905B000F922F938C
:100160003F934F935F936F937F938F939F93AF933F
:10017000BF93EF93FF93CF93DF93CDB7DEB780911B
:10018000050190910601A0910701B0910801019726
:10019000A109B1098093050190930601A09307017D
:1001A000B09308018091050190910601A09107018B
:1001B000B0910801892B8A2B8B2B89F4BCDF8091AD
:1001C000000190910101A0910201B091030180937F
:1001D000050190930601A0930701B0930801000068
:1001E000DF91CF91FF91EF91BF91AF919F918F914F
:1001F0007F916F915F914F913F912F910F9000925E
:100200005B000F9000925F000F901F901895CF93A6
:10021000DF9300D000D0CDB7DEB769837A838B83BC
:100220009C8389819A81AB81BC81809300019093EA
:100230000101A0930201B09303018091000190910C
:100240000101A0910201B0910301809305019093F7
:100250000601A0930701B093080100000F900F90D2
:100260000F900F90DF91CF910895CF93DF9300D03F
:1002700000D01F92CDB7DEB71A82198282E090E0DB
:100280009C838B8381E290E0FC01108282E290E00B
:100290002FEFFC01208387E290E02FEFFC01208309
:1002A00088E290E0FC01108268EE73E080E090E06C
:1002B000AEDF0ADF1D8280E290E0FC018081882FA2
:1002C00090E081709927892B29F48B819C8101967C
:1002D0009C838B83000080E290E0FC018081882F6A
:1002E00090E081709927892BB1F380910901882FC3
:1002F00090E0009721F0019709F44BC05CC08B811E
:100300009C8181709927892B21F481E080930901D8
:1003100052C089819A81892BB9F489819A81019689
:100320009A83898388E290E028E230E0F901208115
:10033000222F30E02170332741E0232B09F040E0E9
:10034000242FFC01208334C089819A81019781F494
:1003500088E290E028E230E0F901208120952270C7
:10036000FC01208389819A8101969A83898320C028
:1003700089819A810297E1F488E290E028E230E0F6
:10038000F901208120952470FC0120831A821982B2
:100390000FC08B819C8181709078992324F4019700
:1003A0008E6F9F6F0196019729F41092090102C088
:1003B000000001C000000000809104018823E1F3E7
:0A03C0001092040178CFF894FFCFEB
:0403CA00010000002E
:00000001FF
