S01C000072717561633030345F6C616231305F70617274322E7372656321
S113000045C0000060C000005EC000005CC000008D
S11300105AC0000058C0000056C0000054C0000080
S113002052C0000050C000004EC000004CC0000090
S11300304AC000006DC0000046C0000044C000007B
S113004042C0000040C000003EC000003CC00000B0
S11300503AC0000038C0000036C0000034C00000C0
S113006032C0000030C000002EC000002CC00000D0
S11300702AC0000028C0000026C0000024C00000E0
S113008022C0000020C000001EC0000011241FBEBA
S1130090CFEFD0E4DEBFCDBF11E0A0E0B1E0E2ECF1
S11300A0F3E000E00BBF02C007900D92A630B10749
S11300B0D9F721E0A6E0B1E001C01D92A531B20755
S11300C0E1F773D07CC19CCF8BE0809381008DE7F6
S11300D090E0909389008093880082E080936F0081
S11300E01092850010928400809101019091020188
S11300F0A0910301B091040180930601909307013C
S1130100A0930801B09309018FB780688FBF089549
S11301101F920F920FB60F9211248F939F93AF9358
S1130120BF938091060190910701A0910801B091BD
S113013009010197A109B109809306019093070170
S1130140A0930801B0930901892B8A2B8B2B99F476
S113015081E080930A018091010190910201A091B4
S11301600301B09104018093060190930701A093C9
S11301700801B0930901BF91AF919F918F910F90A6
S11301800FBE0F901F9018956093010170930201A8
S11301908093030190930401609306017093070117
S11301A08093080190930901089511B88FEF80B9E5
S11301B087B918B88AB91BB864E670E080E090E0AB
S11301C0E3DF82DF30900D0140900E0150900F016B
S11301D060901001709011018090120190901301B1
S11301E0D09114010F2EFAE0AF2EF02DB12CC12CBA
S11301F0D12CE12CF12C00E010E0232D342D452DE1
S1130200562D672D782D892D9D2F63D0A0E0CBD05E
S113021059F48091000183FF04C088508093000149
S113022003C0885F80930001C0910001C0930C015A
S11302300F2EF3E0AF2EF02DB12CC12CD12CE12CDC
S1130240F12C00E010E0232D342D452D562D672D83
S1130250782D892D9D2F3DD0A0E0A5D069F4C2FF53
S113026005C0C870CF5FC093000106C08C2F880FF3
S1130270C870C82BC0930001809100018F7088B9A9
S113028080910A018823E1F310920A0120910D0163
S113029030910E0140910F015091100160911101B4
S11302A0709112018091130190911401A1E06FD01B
S11302B020930D0130930E0140930F0150931001D0
S11302C060931101709312018093130190931401B0
S11302D079CF689401C0E8948F929F92CF93DF9373
S11302E005D0DF91CF919F908F9008958824992411
S11302F0F401E401B0E49F93AA279A158B049C04AB
S1130300ED05FE05CF05D007A10798F4AD2FDC2F2E
S1130310CF2FFE2FE92D982C892E982F872F762FFB
S1130320652F542F432F322F2227B85031F7BF9116
S113033027C01B2EBF91BB27220F331F441F551FFD
S1130340661F771F881F991F881C991CEE1FFF1FAB
S1130350CC1FDD1FAA1FBB1F8A149B04EC05FD05DF
S1130360CE05DF05A007B10748F08A189B08EC0901
S1130370FD09CE09DF09A00BB10B21601A94E1F647
S11303802EF49401AF01BE01CD01000C08950024A8
S1130390A7FD00942A0F301D401D501D601D701DC7
S11303A0801D901D08950024A7FD00942A17300590
S11303B04005500560057005800590050895F89482
S10503C0FFCF69
S10903C209010000000027
S9030000FC
