:1000000045C0000053C0000051C000004FC00000B8
:100010004DC000004BC0000049C0000047C00000B8
:1000200045C0000043C0000041C000003FC00000C8
:100030003DC000003BC0000039C0000037C00000D8
:1000400035C0000033C0000031C000002FC00000E8
:100050002DC000002BC0000029C0000027C00000F8
:1000600025C0000023C0000021C000001FC0000008
:100070001DC000001BC0000019C0000017C0000018
:1000800015C0000013C0000011C0000011241FBEE5
:10009000CFEFD0E4DEBFCDBF21E0A0E0B1E001C0F2
:1000A0001D92A330B207E1F754D065C0A9CF80916B
:1000B0000201823061F128F4882381F0813031F02F
:1000C00044C0833079F18430C1F13FC020910101F7
:1000D0009091000142E033E054E014C081E080934D
:1000E0000001809302010895913019F440930201B8
:1000F00009C0923019F43093020104C0933011F416
:100100005093020180B18170281771F308958AEA33
:1001100088B9809100018F5F8093000181E0809316
:100120000201089585E588B9809100018F5F809371
:10013000000181E080930201089583EC88B981E099
:100140008093000180930201089581E08093020171
:10015000089511B88FEF82B984B915B887B918B866
:100160001092000118B8C1E080B18C278170809393
:0A01700001019DDFF9CFF894FFCFE5
:00000001FF
