:1000000045C0000060C000005EC000005CC0000091
:100010005AC0000058C0000056C0000054C0000084
:1000200052C0000050C000004EC000004CC0000094
:100030004AC00000C5C0000046C0000044C0000027
:1000400042C0000040C000003EC000003CC00000B4
:100050003AC0000038C0000036C0000034C00000C4
:1000600032C0000030C000002EC000002CC00000D4
:100070002AC0000028C0000026C0000024C00000E4
:1000800022C0000020C000001EC0000011241FBEBE
:10009000CFEFD0E4DEBFCDBF11E0A0E0B1E0EEEEE7
:1000A000F2E000E00BBF02C007900D92AA32B10748
:1000B000D9F721E0AAE2B1E001C01D92AF32B20748
:1000C000E1F7CBD012C19CCF181619065CF0089549
:1000D000000021503109E1F74F5F5F4F841795070A
:1000E00019F4089540E050E027E033E0F1CF5E9846
:1000F00088B95F9A00005F9882E090E0E5CF0895AC
:1001000081E0F5CF0895813118F48158F0CF08953A
:100110008155EDCF089584E690E0D6DF88E3E7DFF0
:1001200086E0E5DF8FE0E3DF81E0E1DF8AE090E079
:10013000CBCF08955E9A88B95F9A00005F9881E0FE
:1001400090E0C2CF08950F931F93CF93DF93182FA2
:10015000EB01D6DF8881882351F001E0010F812F68
:10016000D2DF8991E7DF102F88818111F6CFDF91EF
:10017000CF911F910F9108958BE0809381008DE7BF
:1001800090E0909389008093880082E080936F00D4
:1001900010928500109284008091000190910101DD
:1001A000A0910201B091030180932A0190932B0149
:1001B000A0932C01B0932D018FB780688FBF089555
:1001C0001F920F920FB60F9211248F939F93AF93AC
:1001D000BF9380912A0190912B01A0912C01B091A5
:1001E0002D010197A109B10980932A0190932B0158
:1001F000A0932C01B0932D01892B8A2B8B2B99F482
:1002000081E080932E018091000190910101A091E5
:100210000201B091030180932A0190932B01A093D6
:100220002C01B0932D01BF91AF919F918F910F90B1
:100230000FBE0F901F9018956093000170930101FD
:10024000809302019093030160932A0170932B0124
:1002500080932C0190932D010895CF93DF93CDB718
:10026000DEB7E5970FB6F894DEBF0FBECDBF80EFC7
:1002700081B98FE082B98FEF87B918B88AB91BB8F6
:1002800086E2E4E0F1E0DE01119601900D928A959C
:10029000E1F768EE73E080E090E0CEDF6DDF3BDFFA
:1002A0007E0187E1E80EF11C8E01095C1F4FCE0133
:1002B00001966C0116C08D918193E017F107D9F773
:1002C000BE01695D7F4F81E03EDF80912E01882372
:1002D000E1F310922E019FEFC91AD90ACE14DF0460
:0E02E00031F3FE01B796D601E6CFF894FFCFBA
:1002EE0001000000435331323042206973204C65C7
:1002FE0067656E642E2E2E207761697420666F728C
:0A030E002069742044415259210077
:00000001FF
