:1000000045C000004BC0000049C0000047C00000D0
:1000100045C0000043C0000041C000003FC00000D8
:100020003DC000003BC0000039C0000037C00000E8
:1000300035C0000033C0000031C000002FC00000F8
:100040002DC000002BC0000029C0000027C0000008
:1000500025C0000023C0000021C000001FC0000018
:100060001DC000001BC0000019C0000017C0000028
:1000700015C0000013C0000011C000000FC0000038
:100080000DC000000BC0000009C0000011241FBEFD
:10009000CFEFD0E4DEBFCDBF30D0FAC0B1CFCF9329
:1000A000DF9300D01F92CDB7DEB789836A834B837D
:1000B0008B81882371F08A81282F30E081E090E0E5
:1000C00002C0880F991F2A95E2F7982F8981892B02
:1000D0000EC08A81282F30E081E090E002C0880FB6
:1000E000991F2A95E2F7982F9095898189230F907F
:1000F0000F900F90DF91CF910895CF93DF93CDB7FD
:10010000DEB72A970FB6F894DEBF0FBECDBF81E2EF
:1001100090E0FC01108282E290E02FEFFC0120834E
:1001200084E290E02FEFFC01208385E290E0FC0167
:10013000108287E290E02FEFFC01208388E290E0BC
:10014000FC0110821E821F82188619861A86198267
:1001500080E290E0FC01808181708E8380E290E0FB
:10016000FC01808182708F8380E290E0FC018081BD
:100170008470888780E290E0FC01808188708987A4
:100180009E818F81980F8885980F8985890F8A872E
:100190008A85882311F419826DC08A85813019F00F
:1001A0008A85823031F441E065E0898178DF898396
:1001B00061C08A85833019F08A85843059F441E022
:1001C00065E089816CDF898341E064E0898167DFD4
:1001D000898350C08A85853019F08A85863079F404
:1001E00085E08A8308C041E06A81898158DF89837C
:1001F0008A8181508A838A818330A8F73BC08A85AF
:10020000873090F08A858A3078F485E08B8308C047
:1002100041E06B81898143DF89838B8181508B83AE
:100220008B818230A8F726C08A858A3090F08A8533
:100230008D3078F485E08C8308C041E06C81898141
:100240002EDF89838C8181508C838C818823A9F750
:1002500011C08A858D3070F08A85803158F485E030
:100260008D8341E06D8189811ADF89838D81815081
:100270008D83F7CF8A85853028F441E066E0898157
:100280000EDF898388E290E02981FC01208360CF22
:04029000F894FFCF10
:00000001FF
