S01C000072717561633030345F6C616231305F70617274312E7372656322
S113000045C0000060C000005EC000005CC000008D
S11300105AC0000058C0000056C0000054C0000080
S113002052C0000050C000004EC000004CC0000090
S11300304AC000006DC0000046C0000044C000007B
S113004042C0000040C000003EC000003CC00000B0
S11300503AC0000038C0000036C0000034C00000C0
S113006032C0000030C000002EC000002CC00000D0
S11300702AC0000028C0000026C0000024C00000E0
S113008022C0000020C000001EC0000011241FBEBA
S1130090CFEFD0E4DEBFCDBF11E0A0E0B1E0E6E1F8
S11300A0F2E000E00BBF02C007900D92A630B1074A
S11300B0D9F721E0A6E0B1E001C01D92AD30B2074E
S11300C0E1F773D0A6C09CCF8BE0809381008DE7CD
S11300D090E0909389008093880082E080936F0081
S11300E01092850010928400809101019091020188
S11300F0A0910301B091040180930601909307013C
S1130100A0930801B09309018FB780688FBF089549
S11301101F920F920FB60F9211248F939F93AF9358
S1130120BF938091060190910701A0910801B091BD
S113013009010197A109B109809306019093070170
S1130140A0930801B0930901892B8A2B8B2B99F476
S113015081E080930A018091010190910201A091B4
S11301600301B09104018093060190930701A093C9
S11301700801B0930901BF91AF919F918F910F90A6
S11301800FBE0F901F9018956093010170930201A8
S11301908093030190930401609306017093070117
S11301A08093080190930901089511B88FEF80B9E5
S11301B087B918B88AB91BB868EE73E080E090E09C
S11301C0E3DF82DF8091000183FF04C088508093C5
S11301D0000103C0885F8093000180910001809337
S11301E00C0182FF05C088708F5F8093000106C0F8
S11301F0982F990F8870892B8093000180910001BA
S11302008F7088B980910A018823E1F310920A0162
S1090210D9CFF894FFCFE2
S1090216010100000000DC
S9030000FC
